:100D8600141A004000F90024003000190012000275
:100D960000F8000000100C08000000000000000031
:080DA60000000000021600002D
:100CA100120DEB20B023850E34850F358510368566
:100CB1001137851238851339AB0DAA0CAD0BAC0A6F
:100CC100AF09AE08120800800E208305120B9A802E
:0F0CD1000620B203120D5720B3C9120DD380C4F1
:100D5700AF90EF64017005759020801CE590C31378
:100D6700F5900517E51770020516AE16FF7C007D96
:0F0D770006120C4C8C168D177FE87E03020D318F
:100DD300E51725E02408F80806E61870010612094D
:080DE300287FE87E03020D31B8
:100DEB00D2B0E4F516F517D2B3D2B2D28375A8857B
:040DFB0075900122CC
:100800008E3C8F3D8C3E8D3F8A408B4185344285A6
:10081000354385364485374585384685394730B078
:1008200003020927853C08853D09853E0A853F0B63
:1008300085400C85410D85420E85430F854410850A
:100840004511854612854713120928053BE53B7083
:1008500002053A6405453A7011F53AF53B053DE568
:100860003D7002053C853C08F509120928E53D6408
:100870000A453C7011F53CF53D053FE53F7002052A
:100880003E853E0AF50B120928E53F6406453E7099
:1008900011F53EF53F0541E5417002054085400CEC
:1008A000F50D120928E541640A45407011F540F53F
:1008B000410543E5437002054285420EF50F1209DA
:1008C00028E543640645427011F542F5430545E5C8
:1008D0004570020544854410F511120928E5456468
:1008E0000A45447011F544F5450547E54770020592
:1008F00046854612F513120928E5456404454470FF
:1009000020E547640245467018F53CF53DF53EF597
:100910003FF540F541F542F543F544F545F546F51B
:070920004712092802081E1E
:0109270022AD
:10092800850C4E850D4F850A50850B5185085285DB
:0E0938000953AB0FAA0EAD11AC10AF13AE12E7
:100946008E488F498C4A8D4B8A4C8B4D20B06575ED
:100956009001D3E5499403E54894004013E54B9490
:1009660002E54A94004009E4F548F549F54AF54B95
:10097600AE48AF497D03120D1E759002AE4AAF4BCD
:10098600120D1C759004AE4CAF4D7C007D06120D09
:1009960020759008AE4EAF4F120D1C759010AE50DC
:1009A600AF517C007D06120D20759020AE52AF53DC
:1009B6007C008024E51764054516700C759001AE21
:1009C60048AF49FC7D038060E51764044516700C4A
:1009D600759002AE4AAF4BFC7D0A804CE517640366
:1009E6004516700C759004AE4CAF4DFC7D068038F4
:1009F600E51764024516700C759008AE4EAF4FFCB5
:100A06007D0A8024E51764014516700C759010AEBA
:100A160050AF51FC7D068010E5174516700D759098
:0C0A260020AE52AF53FC7D0A120D2022BE
:100B9A00759001AE12AF137C007D03120D20759083
:100BAA0002AE10AF11120D1C759004AE0EAF0F7C81
:100BBA00007D06120D20759008AE0CAF0D120D1CAB
:100BCA00759010AE0AAF0B7C007D06120D20759051
:100BDA0020AE08AF097C007D0A120C4CED25E024FA
:0D0BEA001AF808E6F5A07F017E00020D312B
:100D1C007D0A7C00120C4CED25E0241AF808E6F54F
:050D2C00A07F017E0024
:100D3100E4FDFCC3ED9FEE6480F8EC6480985015EF
:100D4100E4FBFA0BBB00010AEB64324A70F50DBDFE
:050D510000010C80DE32
:010D5600227A
:100ABE00E4F554F555F556F557F558F559F55AF53B
:100ACE005BF55CF55DF55EF55FF514F515D2B2C21A
:100ADE00B320B25420B3080515E515700205147540
:100AEE004E00754F057550007551057552007553C2
:100AFE00077B067A007D037C00AF15AE1412094603
:100B0E00E515240AFFE43514FE754E00754F037586
:100B1E0050007551057552007553077B067A007D9E
:080B2E00037C0012094680A9B6
:010B3600229C
:100B370030B23F759001120928120D2D75900212DF
:100B47000928120D2D759004120928120D2D759084
:100B570008120928120D2D759020120928120D2D43
:100B6700759010120928120D2D30B0C4120DAF0266
:100B77000B37850E34850F3585103685113785126D
:100B870038851339AB0DAA0CAD0BAC0AAF09AE080B
:030B970002080051
:100DAF00E4F514F51530B0FD0515E51570020514C1
:100DBF00AE14FF7C007D06120C4CAE04AF05120B77
:040DCF00F7020CE03B
:100CE00030B3FDAE14AF157C007D06120C4CED2523
:100CF000E02408F80806E618700106850C4E850DFC
:100D00004F850A50850B51850852850953AB0FAAB0
:0C0D10000EAD11AC10AF13AE120209467C
:100BF700EE7051EF24FE602814602C1460301460EE
:100C0700341460382405703C759020AE14AF157C01
:100C1700007D06120C4CED25E02408F808E680213B
:100C2700759010E50B801A759008E50D8013759087
:100C370004E50F800C759002E5118005759001E5BC
:050C470013120D242230
:03000000020A32BF
:0C0A3200787FE4F6D8FD75815F020A7938
:100C4C00BC000BBE0029EF8DF084FFADF022E4CC8C
:100C5C00F875F008EF2FFFEE33FEEC33FCEE9DEC55
:100C6C00984005FCEE9DFE0FD5F0E9E4CEFD22ED9B
:100C7C00F8F5F0EE8420D21CFEADF075F008EF2FE5
:100C8C00FFED33FD4007985006D5F0F222C398FDD6
:050C9C000FD5F0EA2273
:100A3E00020CA1E493A3F8E493A34003F68001F221
:100A4E0008DFF48029E493A3F85407240CC8C333B9
:100A5E00C4540F4420C8834004F456800146F6DF88
:100A6E00E4800B0102040810204080900D86E47E85
:100A7E00019360BCA3FF543F30E509541FFEE4937D
:100A8E00A360010ECF54C025E060A840B8E493A344
:100A9E00FAE493A3F8E493A3C8C582C8CAC583CA6F
:100AAE00F0A3C8C582C8CAC583CADFE9DEE780BE27
:010DAE000044
:00000001FF
