:0D099000010801010901020A0000010C002C
:0609AB001209220209B14D
:0409B6004387012250
:10092200C292E4F5A07F01FE12096875A001D2B25D
:10093200D2B375C80475CD3C75CB3C75CCB075CAC5
:09094200B0D2CAD28875A8A52222
:030003000209BA35
:0409BA007509003289
:030013000209BE21
:0409BE007509013284
:03002B00020800C8
:10080000C0E0C0F0C083C082C0D075D000C000C0BE
:1008100001C002C003C004C005C006C007C2CFE5C6
:100820000964017056D3E50B9405E50A9400404332
:10083000E50C146020047030E5A025E0F5A0AFA021
:10084000EF64807026750C0175A0FFD2927F01FEC7
:1008500012094B8016E5A0C313F5A0AFA0EF640109
:100860007009F50CC292800375A0FF750A00750B24
:10087000008008050BE50B7002050AD007D006D0F2
:1008800005D004D003D002D001D000D0D0D082D087
:0608900083D0F0D0E0323D
:0509B1001209B680FBF5
:0E098100E4FFFE0FBF00010EEF64784E70F52C
:01098F002245
:04096800AD07AC0625
:10096C00E4FBFAC3EB9DEA9C500A1209810BBB0015
:04097C00010A80EFFD
:010980002254
:04094B008E0D8F0E70
:10094F00900000C3E582950EE583950D500A7FE870
:08095F007E03120968A380EB7E
:01096700226D
:0D099E00758901758C3C758AB0D28C80FE85
:030000000208965D
:0C089600787FE4F6D8FD75810E0208DDC5
:1008A2000209ABE493A3F8E493A34003F68001F2B8
:1008B20008DFF48029E493A3F85407240CC8C33357
:1008C200C4540F4420C8834004F456800146F6DF26
:1008D200E4800B0102040810204080900990E47E1D
:1008E200019360BCA3FF543F30E509541FFEE4931B
:1008F200A360010ECF54C025E060A840B8E493A3E2
:10090200FAE493A3F8E493A3C8C582C8CAC583CA0C
:10091200F0A3C8C582C8CAC583CADFE9DEE780BEC4
:01099D000059
:00000001FF
