:100C27001447004000F900240030001900120002A8
:100C370000F8000000100C38000000000000000061
:070C4700000000000146005F
:100BF900120C4F20B0FDE4F544F545853E1A853FBA
:100C09001B85401C85411D85421E85431FAB3DAA9E
:0E0C19003CAD3BAC3AAF39AE3812080080D586
:100C4F00D2B0E4F544F545D2B4D2B275A88575900B
:020C5F00012270
:03000300020AB836
:100AB800C0E0C0F0C083C082C0D075D000C000C004
:100AC80001C002C003C004C005C006C007AF90EF54
:100AD80064017005759020801CE590C313F590059E
:100AE80045E54570020544AE44FF7C007D06120BC7
:100AF8001F8C448D457FE87E03120BD9D007D006A2
:100B0800D005D004D003D002D001D000D0D0D082FC
:070B1800D083D0F0D0E032E1
:03001300020B7469
:100B7400C0E0C0F0C083C082C0D075D000C000C047
:100B840001C002C003C004C005C006C007E5452576
:100B9400E02438F80806E6187001061209227FE8F6
:100BA4007E03120BD9D007D006D005D004D003D0D1
:100BB40002D001D000D0D0D082D083D0F0D0E032A7
:100BC4007D0A7C00120B1FED25E02447F808E6F5AA
:050BD400A07F017E007E
:100BD900E4FDFCC3ED9FEC9E5015E4FBFA0BBB0052
:0F0BE900010AEB64324A70F50DBD00010C80E487
:010BF80022DA
:10092200853C32853D33853A34853B35853836857D
:0E0932003937AB3FAA3EAD41AC40AF43AE42B9
:100940008E2C8F2D8C2E8D2F8A308B3120B065759B
:100950009001D3E52D9403E52C94004013E52F94EA
:1009600002E52E94004009E4F52CF52DF52EF52F27
:10097000AE2CAF2D7D03120BC6759002AE2EAF2F9D
:10098000120BC4759004AE30AF317C007D06120BA3
:10099000C8759008AE32AF33120BC4759010AE34E8
:1009A000AF357C007D06120BC8759020AE36AF3790
:1009B0007C008024E54564054544700C759001AECB
:1009C0002CAF2DFC7D038060E54564044544700C2C
:1009D000759002AE2EAF2FFC7D0A804CE545640376
:1009E0004544700C759004AE30AF31FC7D06803804
:1009F000E54564024544700C759008AE32AF33FC97
:100A00007D0A8024E54564014544700C759010AE64
:100A100034AF35FC7D068010E5454544700D75907A
:0C0A200020AE36AF37FC7D0A120BC82256
:100800008E228F238C248D258A268B27851A288576
:100810001B29851D82851C83851E2A851F2B30B0D0
:100820000302092185223885233985243A85253B11
:1008300085263C85273D85283E85293F8583408543
:100840008241852A42852B431209220521E5217028
:10085000020520642345207011F520F5210523E5CC
:100860002370020522852238F539120922E5236416
:100870000A45227011F522F5230525E525700205AC
:100880002485243AF53B120922E5256406452470A7
:1008900011F524F5250527E5277002052685263C58
:1008A000F53D120922E527640A45267011F526F563
:1008B000270529E5297002052885283EF53F1209FC
:1008C00022E52964064528700BF528F529A38583C0
:1008D00040858241120922E582640A45837011F540
:1008E00083F582052BE52B7002052A852A42F54304
:1008F000120922E582640445837020E52B640245D9
:100900002A7018F522F523F524F525F526F527F5A7
:1009100028F529F583F582F52AF52B12092202081C
:010920001EB8
:0109210022B3
:03000000020A2CC5
:0C0A2C00787FE4F6D8FD75815A020A7349
:100B1F00BC000BBE0029EF8DF084FFADF022E4CCBA
:100B2F00F875F008EF2FFFEE33FEEC33FCEE9DEC83
:100B3F00984005FCEE9DFE0FD5F0E9E4CEFD22EDC9
:100B4F00F8F5F0EE8420D21CFEADF075F008EF2F13
:100B5F00FFED33FD4007985006D5F0F222C398FD04
:050B6F000FD5F0EA22A1
:100A3800020BF9E493A3F8E493A34003F68001F2D0
:100A480008DFF48029E493A3F85407240CC8C333BF
:100A5800C4540F4420C8834004F456800146F6DF8E
:100A6800E4800B0102040810204080900C27E47EEB
:100A7800019360BCA3FF543F30E509541FFEE49383
:100A8800A360010ECF54C025E060A840B8E493A34A
:100A9800FAE493A3F8E493A3C8C582C8CAC583CA75
:100AA800F0A3C8C582C8CAC583CADFE9DEE780BE2D
:010C4E0000A5
:00000001FF
